:020000040800F2
:10000000308001205D0200086F47000809390008B0
:100010006D470008AD0D00082D52000800000000DB
:100020000000000000000000000000009D0100082A
:10003000FD0E000800000000F9010008D94A000880
:1000400077020008770200087702000877020008AC
:10005000770200087702000877020008770200089C
:10006000770200087702000877020008770200088C
:10007000770200087702000877020008770200087C
:10008000770200087702000877020008770200086C
:10009000770200087702000877020008770200085C
:1000A000770200087702000877020008770200084C
:1000B000770200087702000877020008770200083C
:1000C000770200087702000877020008770200082C
:1000D000770200087702000877020008770200081C
:1000E000770200087702000877020008770200080C
:1000F00077020008770200087702000877020008FC
:1001000077020008770200087702000877020008EB
:1001100077020008770200087702000877020008DB
:100120007702000877020008770200084D0E0008E9
:1001300077020008770200087702000877020008BB
:1001400077020008770200087702000877020008AB
:10015000770200087702000877020008770200089B
:10016000770200087702000877020008770200088B
:1001700077020008770200087702000800000000FC
:100180007702000877020008DFF80CD000F00AFCC4
:1001900000480047E5540208308001202C4B1968C4
:1001A0000868B0E8F04F80F30988BFF36F8F4FF015
:1001B000000080F3118870470000000008480068C4
:1001C000006880F308884FF0000080F3148862B65E
:1001D00061B6BFF34F8FBFF36F8F00DF00BF00BF6B
:1001E00008ED00E0DFF80C00016841F470010160E7
:1001F000704700BF88ED00E0EFF30980BFF36F8F19
:10020000134B1A681EF0100F08BF20ED108A20E96A
:10021000F04F106009B44FF0500080F31188BFF325
:100220004F8FBFF36F8F2BF0B3FC4FF0000080F3C4
:10023000118809BC19680868B0E8F04F1EF0100F6B
:1002400008BFB0EC108A80F30988BFF36F8F704746
:100250006C020020EFF305807047000006488047DD
:1002600006480047FEE7FEE7FEE7FEE7FEE7FEE79B
:10027000FEE7FEE7FEE7FEE7854B00088901000880
:100280002DE9F05F0546002092469B4688460646CB
:10029000814640241BE0284641464746224600F05E
:1002A00006FA53465A46C01A914110D311461846D1
:1002B000224600F0EDF92D1A67EB01084F46224661
:1002C0000120002100F0E4F917EB00094E41201E47
:1002D000A4F10104DFDC484631462A464346BDE826
:1002E000F09F2DE9F0410024061B254671F1000620
:1002F00005DA01240027D0EB070067EB0101161E89
:1003000073F1000605DA0027D2EB0702012567EB3F
:100310000303FFF7B5FF86460E4617469C46AC42E0
:1003200004D00025D0EB050E65EB010624B10020BA
:10033000D2EB000760EB030C704631463A46634649
:10034000BDE8F08110B5431A934209D2831888188A
:1003500003E010F8011D03F8011D521EF9D210BD73
:1003600040EA01039B0703D009E008C9121F08C037
:10037000042AFAD203E011F8013B00F8013B521EB7
:10038000F9D210BDD2B201E000F8012B491EFBD218
:1003900070470022F6E710B513460A460446194690
:1003A000FFF7F0FF204610BD30B505462A460B4644
:1003B00012F8010B13F8014B08B1A042F8D01CB1A0
:1003C000002802D06D1CF1E7284630BD421C10F811
:1003D000011B0029FBD1801A704710B5002200E0F4
:1003E000521C835C8C5CA34201D1002BF8D1D8B2A3
:1003F000E1B2401A10BD034611F8012B00F8012BA1
:10040000002AF9D1184670472DE9FE4F81EA03040E
:1004100004F0004421F0004100944FF0000B23F061
:10042000004350EA01045ED052EA03045BD0C3F3F8
:100430000A54C1F30A552C44A4F2F3340194A0FBEE
:100440000254C1F3130141F48011C3F3130343F4C5
:10045000801301FB024400FB034E840A970A44EA1E
:10046000815447EA8357A4FB076802958D0A05FB70
:1004700007854FEA932C04FB0C542705029D4FEA95
:10048000065847EA1637B5EB08056EEB070C870EE2
:10049000920E47EA811742EA8312A7FB0201B6EBEC
:1004A0000B0164EB00042B0D43EA0C335E1844EBA4
:1004B0001C50DA465146E7FB0201C5F313044FEA2C
:1004C0000B3343EA14534FEA0432019C43EA060318
:1004D000A4F10C040294009CCDE900B400F03DF9B5
:1004E00003B0BDE8F08F00200146F9E72DE9F04D9B
:1004F00081EA030404F0004B21F0004514464FF05C
:10050000000A23F0004150EA050220D054EA01021B
:100510001DD0C5F30A570246C5F31303C1F31300F8
:10052000C1F30A5640F4801543F48013A7EB060884
:10053000101BD64608F2FD3873EB050002D308F114
:10054000010801E092185B41B8F1000F03DA0020C6
:100550000146BDE8F08D00204FF480110646844628
:100560000EE0171B73EB050705D3121B63EB0503A6
:1005700006434CEA010C49084FEA300092185B41EF
:1005800050EA0107EDD152EA030012D082EA0400DA
:1005900083EA0501084305D0101BAB4106D20122B6
:1005A000002306E000224FF0004302E06FF001025A
:1005B00053101AEB06004CEB085110EB0A0041EB0C
:1005C0000B01BDE8F04D00F0B9B80EB5C10F80EADF
:1005D000E0700844CA07002140F233438DE80E0062
:1005E0000A460B4600F0B9F803B000BD0EB540F264
:1005F000334102910021CDE900110A460B4600F07B
:10060000ACF803B000BD00F0004230F000400AD06A
:10061000C10D01F56071C0F3160042EA0151C20834
:1006200040071143704700200146704701F0004326
:1006300030B421F0004150EA010206D00A0DA2F5C3
:100640006072C1F31301002A02DC30BC0020704745
:10065000440F44EAC104C100E01830BC00EBC250B2
:1006600000F035B830B50B460146002020220124A9
:1006700009E021FA02F59D4205D303FA02F5491B70
:1006800004FA02F52844151EA2F10102F1DC30BD86
:10069000202A04DB203A00FA02F100207047914042
:1006A000C2F1200320FA03F3194390407047202A37
:1006B00004DB203A21FA02F00021704721FA02F30C
:1006C000D040C2F1200291400843194670470029EA
:1006D000A8BF7047401C490008BF20F001007047C8
:1006E00010B4B0FA80FC00FA0CF050EA010404BF28
:1006F00010BC704749B1CCF1200421FA04F411FA7E
:100700000CF118BF012121430843A3EB0C01CB1DC1
:100710004FEA00614FEA102042BF002010BC704732
:1007200000EBC35010440029A4BF10BC7047401C0C
:10073000490008BF20F0010010BC704710B5141E1E
:1007400073F1000408DA401C41F1000192185B418A
:100750001A4301D120F0010010BD2DE9F04D924661
:100760009B4611B1B1FA81F202E0B0FA80F2203278
:100770009046FFF78DFF04460F4640EA0A0041EA23
:100780000B0153465A46084313D0114653EA010061
:1007900019D0C8F140025046FFF789FF05460E46C2
:1007A000504659464246FFF773FF084305D00120E3
:1007B00004E020463946BDE8F08D0020054346EAB6
:1007C000E0762C4337430A986305E40AA0EB08005F
:1007D0000022FD0A44EA47540A3002D500200146AF
:1007E000E9E7010510196941DDE90845001969418A
:1007F000BDE8F04DA2E72DE9FE4F804681EA0300F7
:10080000C00F0C46009021F0004123F00045B8EBEA
:100810000200A94105D24046214690461C460B469F
:10082000024623F00040104347D0270DC7F30A00CB
:10083000C3F30A510290401A019040286BDAC3F3C7
:10084000130040F4801B0098924620B10023D2EBA5
:10085000030A63EB0B0B01985946C0F14002504666
:10086000FFF716FF06460D4650465946019A00F01E
:10087000ABF810EB08006141002487EA115284EACA
:10088000E7731A4340D0009A62B3019A012A4FEAF3
:10089000075215DC001B61EB02014FF0004202EA37
:1008A0000752CDE90042001C41F5801132462B462B
:1008B000FFF753FF03B0BDE8F08F40462146F9E74C
:1008C000001B61EB0201001C41F5801300185B4125
:1008D0002018A2F5001747EB030140EAD570B619BE
:1008E0006D4111E06D084FEA360645EAC0754FEAE2
:1008F0000752001B61EB0201001C41F58011490801
:100900004FEA30000019514132462B4603B0BDE892
:10091000F04FFFF713BF0098012240000023D0EBF7
:10092000020263EBE073009821464FEAE074B8EBF3
:10093000000061EB0401E9E783F000435BE781F02D
:10094000004158E7C1F30A52C1F3130140F2FF33EB
:1009500041F480119A4202DA00200146704740F2C9
:1009600033439A42A2F2334202DC5242FFF79FBE67
:10097000FFF78EBE30B5041E71F1000404DB4FF0AA
:100980000044404264EB0101141E73F1000405DBD6
:100990001C464FF00043524263EB0403994208BFE8
:1009A000904230BD064C074D06E0E06840F0010380
:1009B00094E8070098471034AC42F6D3FFF7E8FB01
:1009C000D431050804320508202A06DBCB17203A6B
:1009D00041FA02F043EAE07306E041FA02F3D04044
:1009E000C2F12002914008431946704770B58C1837
:1009F00010F8015B15F0070301D110F8013B2A1133
:100A000006D110F8012B03E010F8016B01F8016B1F
:100A10005B1EF9D12B0705D40023521E0DD401F81B
:100A2000013BFAE710F8013BCB1A921C03E013F8E4
:100A3000015B01F8015B521EF9D5A142D8D3002019
:100A400070BD0000464910B54A6822F440324A6041
:100A50004A6843681A434A6001684A6822F480720F
:100A60004A6001684A68036942EA03224A600168F1
:100A70004A6822F040724A6001684A6883681A43F3
:100A80004A6001688A6822F400628A6001688A68A4
:100A9000C3681A438A60816A6FF07062D14201684C
:100AA0008A6822F070628A6001688A680CD0836A62
:100AB0001A438A6001688A6822F040528A6001689D
:100AC0008A68C36A1A4301E022F040528A600168D2
:100AD0008A6822F002028A6001688A68037E42EA1C
:100AE00043028A6090F82010002901684A680FD0FC
:100AF00042F400624A6001684A6822F460424A6037
:100B000001684A68174C436A04EB43331A4301E017
:100B100022F400624A600168CA6A22F47002CA6262
:100B20000168CA6A838B104C04EB03531A43CA62F0
:100B300001688A6822F400728A6001688A6890F805
:100B4000303042EA43228A6001688A6822F4806277
:100B50008A6001688A68406942EA8020886010BD26
:100B60000023014000E0FFFF0000F0FF214C224D78
:100B7000287800F01DF9287030B1012810D0022823
:100B800019D0032822D02EE06FF07F4015F08EFEA2
:100B900001460022A06B21F029F918A1206C20E069
:100BA000184815F083FE01460022A06B21F01EF9C3
:100BB00015A1206C15E0184815F078FE01460022BA
:100BC000A06B21F013F915A1206C0AE04FF47F000F
:100BD00015F06CFE01460022A06B21F007F913A16D
:100BE000206C1CF003FA287804F052F9012025F05B
:100BF00094F9BDE74003002010000020E6ADA3E516
:100C0000B8B8000000FFFF00E9BB84E889B2E68ABB
:100C1000A5E8ADA60000000000A5FF00E6A999E840
:100C200089B2E68AA5E8ADA600000000E7BAA2E80E
:100C300089B2E68AA5E8ADA6000000002DE9F05FC4
:100C4000544C83465449A069B4F91050C217411856
:100C500042F1FF30A1FB012300FB013301FB00380F
:100C6000A2FB0537EE1708FB057502FB0659B4F920
:100C70000E504FF0000AA5FB017CEE1706FB01C6E3
:100C800005FB00656E0446EAD7367F04FB1846EB89
:100C900009061AEB0309B4F90A30B4F90C50A2FBA7
:100CA000037C46EBC5054FEAE37608FB03C302FB72
:100CB0000632B4F908604FEA1723A6FB01C84FEAD1
:100CC000E67707FB018106FB00104FEA003143EA9B
:100CD00002634FEA0C3041EA1C51181841EB222202
:100CE000001C42F50043E288A0FB027603FB02628F
:100CF00000FB0A204210C31752EA030048D0CBF58C
:100D00008010C117C907C60741EA5001B6EB0906B2
:100D100040F63547A6FB070C61EB050101FB07C157
:100D2000002506FB0511FFF7DCFAB4F91630420B7B
:100D300042EAC142A3FB027CDD1705FB02C54E134C
:100D400003FB0653A7FB025C03FB02C207FB06235F
:100D50006A0E42EAC3125D16B4F91430A3FB007C9C
:100D6000DE1706FB00C603FB0166FB0C801843EA96
:100D700046336941C01841EBE6414FEA102040EA92
:100D80000160B4F912104FEA01114018BDE8F09F5C
:100D90000020FBE7C0050020000CFEFF00224FF4FE
:100DA0000061014801F0AEB8000C0240FEE700000F
:100DB0001A491B4A096811441A4A914201D3032077
:100DC00070471949194B91ED000A194910EE102A84
:100DD0009A4202DD64204863F1E7164A164B126816
:100DE0009A4200DD022010EE102A144B9A420DDDCB
:100DF000DFED130A30EEC00AF2EE040A20EE200AFC
:100E0000BCEEC00A10EE100A486302200D490E4ADB
:100E100009689142D4DA01207047000000000020E8
:100E2000CDCCCCBF3433530000C0012000008C4235
:100E300000000140040000200000A04000005C42CF
:100E400000008C42080000200000A041014800F092
:100E5000D5BD0000C004002001681823CAB2103AB2
:100E6000B2FBF3F2054B6FF30901032A9B5CC365E8
:100E700000D9091D816508467047000020C8020896
:100E800010B5014600208B698A6A4FF0C07453B1D7
:100E9000B3F5005F15D072B1012A0CD0022A0AD036
:100EA000032A09D104E01AB1012A06D0022A03D18B
:100EB000C96AC90100D5012010BDC96AA142FAD092
:100EC00010BD002AF7D0012AF2D0022AF3D0032A5B
:100ED000F3D010BD30B50468256825F48025256061
:100EE000046863608368402B036803D099600068DE
:100EF000C26030BD9A600068C16030BD70470000BC
:100F000030B51C461546C1B00B46024612A16846D4
:100F100004F09EF91BA1684600F028F9002819D0BA
:100F20002A4619A1684604F093F916A1684600F014
:100F30001DF900280ED0224619A1684604F088F950
:100F40001EA1684600F012F9002803D0642024F0A6
:100F5000E4FF012041B030BD41542B4D5154545554
:100F60005345524346473D302C312C224E554C4C74
:100F7000222C222573222C222573222C302C302C5B
:100F8000222200004F4B000041542B4D515454433A
:100F90004C49454E5449443D302C222573220000D3
:100FA00041542B4D515454434F4E4E3D302C22252D
:100FB00073222C313838332C310000004D515454F9
:100FC000434F4E4E454354454400000030B50C4657
:100FD0000546A1B00BA10CA000F0C8F800280FD066
:100FE00023462A460BA1684604F032F90EA1684652
:100FF00000F0BCF8002803D0642024F08EFF01200C
:1010000021B030BD4F4B000041542B43574D4F444E
:10101000453D310041542B43574A41503D222573F1
:10102000222C2225732200005749464920434F4E67
:101030004E4543544544000010B54FF4FA7024F077
:101040006CFF0FA10FA000F091F8002816D00CA1A2
:101050000DA000F08BF8002810D0642024F05DFF74
:101060000BA10EA0FFF7B2FF0EA31A4A1A491BA04C
:10107000FFF746FF1EA000F0F7F8012010BD0000AA
:101080004F4B000041540000415445300000000027
:1010900033343037343730300000000069514F4F5F
:1010A00031320000696F742D30367A3030616779E3
:1010B000623661346237312E6D7174742E696F74CB
:1010C0006875622E616C6979756E63732E636F6DDE
:1010D000000000006C2C0508C42B05084553503354
:1010E00032266B31717133306A7034375000000032
:1010F0002F6B31717133306A703437502F45535034
:1011000033322F757365722F737562736372696200
:101110006500000000B5ADF5017D0B4602460BA150
:10112000684604F095F810A1684600F01FF8002802
:101130004FF0640005D024F0F0FE01200DF5017D94
:1011400000BD24F0EAFE0020F8E7000041542B4DDA
:101150005154545055423D302C222573222C2225C7
:1011600073222C312C3000004F4B00002DE9F0434E
:10117000884681460146ADF5017D00242CA004F08F
:1011800057F8642024F0C9FE4846FFF71FF982B2E1
:101190004FF47A752B464946274802F065FB2B46EB
:1011A000022226A1244802F05FFB00F0B1FE0546B2
:1011B0006E4641F288370AE06423012280A91E4866
:1011C00002F0FAFA18B99DF800023055641C00F0DC
:1011D0009FFE401BB842EFD300203055694615A052
:1011E00004F026F8642024F098FEB8F1000015D031
:1011F00001466846FFF7D8F820B911A16846FFF705
:10120000D3F858B1494610A004F012F8642024F035
:1012100084FE01200DF5017DBDE8F08349460EA056
:1012200004F006F8642024F078FE0020F2E70000C5
:10123000434D443A25730A00680500200D0A00005A
:101240000D0A4F4B0D0A00002573202B20E68890D5
:10125000E58A9F0A000000002573202B20E5A4B139
:10126000E8B4A50A0000000000B5ADF5017D024616
:101270000AA1684603F0ECFF0DA16846FFF776FF70
:1012800000284FF0640005D024F047FE01200DF542
:10129000017D00BD24F041FE0020F8E741542B4DB4
:1012A0005154545355423D302C222573222C310089
:1012B0006F6B000072B6FEE738B51D4D4FF4005459
:1012C00000222146284600F01DFE0A2000F008FDFD
:1012D00001222146284600F015FE4FF4FA7000F076
:1012E000FFFC01226946A82000F024F89DF80000C8
:1012F000112818D1022269469F2000F01BF89DF8A2
:10130000000026280FD19DF8010018B1012801D056
:10131000022808D101226946A32000F00BF89DF8AD
:101320000000642801D0012038BD002038BD000035
:101330000018024077B581B014000E4610D00A257F
:10134000012301AA70210948009500F0A3FF38B9D4
:101350002346324671210548009500F0A3FE10B1E6
:10136000002004B070BD0120FBE700001404002041
:101370002DE9FC47614E00244FF00A083078604D9B
:10138000401CC0B2B0FBF8F208FB120127463070D7
:1013900009B10A2873D2012201A90220FFF7CAFF6E
:1013A0009DF8041000296BD003296AD2FF208840E1
:1013B000C04340F0C000DFF84C91DFF84CA1287426
:1013C000012700BF19F8140004226946FFF7B2FF95
:1013D000287C07FA04F108426BD09AF806105046B0
:1013E00031B1012919D002292FD0032961D149E057
:1013F0009DF800109DF8010001F00F0100EB0121A4
:1014000005EB440001819DF802209DF8031002F0D5
:101410000F0201EB022181814BE09DF800209DF835
:10142000011002F00F02BAF8020001EB0221411A8A
:1014300005EB440081819DF802209DF8031002F025
:101440000F0201EB0221018133E09DF800209DF89D
:10145000011002F00F0201EB02210288521A05EB83
:1014600044010A819DF802309DF8032003F00F0328
:10147000BAF8020002EB0322801A888119E025E005
:1014800027E033E09DF800209DF8011002F00F02E4
:1014900001EB022205EB44018A819DF802309DF8A0
:1014A000032003F00F03BAF8000002EB0322801AB6
:1014B0000881641CE4B2022C84D301272A8900210C
:1014C0001AB9A88908B98DF8041031709DF8040084
:1014D00060B9287C010602D520F0800005E04FF6B7
:1014E000FF712981A98100F0E00028743078F0288C
:1014F00001D986F800803846BDE8FC870CC0012081
:10150000300000201CC80208B005002010B51448A7
:1015100000F0F6F920B90A21114800F09BF910B14A
:101520009FED100A10BD104800F01EF9FFF75EF89D
:101530009FED0E1B53EC112BFEF766FF9FED0D1B6D
:1015400053EC112BFEF760FF9FED0C1B53EC112B9E
:10155000FEF75AFFFFF76AF800EE100A10BD000010
:10156000CC030020000000008403002000000000E5
:101570000000303F000000000000144000000000A8
:101580000000F43F10B50B4C86B0D4E90201CDE960
:101590000001D4E90023084902A806F081FF0DF1FB
:1015A000080C9CE80F0084E80F0006B000EE102A3B
:1015B00010BD0000DC0500201404002010B5114807
:1015C00000F09EF920B90A210E4800F043F910B14D
:1015D0009FED0D0A10BD0B4800F0C6F8FFF706F8A6
:1015E0009FED0A1B53EC112BFEF70EFF9FED091B1D
:1015F00053EC112BFEF708FFFFF718F800EE100A66
:1016000010BD000084030020000000000000000066
:101610000000303F000000000000144078B50024B6
:10162000009490F83C20012A19D0012280F83C2037
:101630000A6807230568092A13D9EE680A3A02EBFB
:10164000420293409E43EE600B788A680A3B03EBAC
:1016500043039A400368DD682A43DA6010E0022001
:1016600078BD2E6902EB420293409E432E610B78B7
:101670008A6803EB43039A4003681D692A431A6191
:101680004A681F23072A13D205686E6B521E02EBAD
:10169000820293409E436E630B790A885B1E92B26E
:1016A00003EB83039A4003685D6B2A435A6327E088
:1016B00005680D2A12D22E6BD21F02EB82029340D4
:1016C0009E432E630B790A88DB1F92B203EB8303E0
:1016D0009A4003681D6B2A431A6311E0EE6A0D3AC3
:1016E00002EB820293409E43EE620B790A880D3B27
:1016F00092B203EB83039A400368DD6A2A43DA62FD
:10170000164B0568144A9D4206D10D68122D03D16F
:10171000556845F48005556005689D4218D10B68F1
:10172000102B01D0112B13D1536843F400035360E5
:10173000096810290CD10A490A4A0968B1FBF2F17B
:1017400001EB8101490000E0491E00910029FBD115
:1017500080F83C40002078BD00230140002001407B
:101760002800002040420F000068C06C704770B530
:1017700004004FF0000503D0206C002610B107E0F4
:10178000012070BD204600F01DF8666484F83C60BE
:10179000206CC00610D4206C20F4885040F0020069
:1017A00020642046FFF74EF96664206C20F00200AA
:1017B00040F00100206400E0012584F83C602846E8
:1017C00070BD000070B586B0044614216846FEF76F
:1017D000E0FD1D491B4E256800231B4A14390324D4
:1017E0001A48B54211D1156845F480751560126824
:1017F00002F4807205920A6842F001020A600968E8
:1018000001F001010591022113E0114EB54216D1FC
:10181000156845F400751560126802F400720592AF
:101820000A6842F001020A60096801F001010591AD
:101830000421CDE900140293694600F063FA06B072
:1018400070BD00000020014044380240000002400A
:10185000002101402DE9F041044600680D468168F1
:101860004FF0000749050BD58068C00508D5206CEE
:1018700040F02000206484F83C700120BDE8F08135
:1018800000F046FB064613E0681C11D025B100F0BD
:101890003FFB801BA8420BD920680068800707D453
:1018A000206C40F00400206484F83C700320E5E7DD
:1018B000206800688007E7D521686FF01200086093
:1018C000206C40F4007020642068816811F0405F53
:1018D00013D1217E89B9C16A11F4700F02D08068DA
:1018E00040050AD4206C20F480702064206CC00471
:1018F00003D4206C40F0010020640020BEE700000B
:1019000018B50021009190F83C20012A07D001224F
:1019100080F83C2002689368DB0702D011E00220C7
:1019200018BD936843F0010393602E4A2E4B126852
:10193000B2FBF3F202EB420200E0521E0092002AD8
:10194000FBD102689368DB0742D0036C40F201646C
:10195000A34343F48073036453685B0505D5036CAC
:1019600023F4005343F480530364036CDB0404D575
:10197000436C23F00603436400E0416480F83C10AC
:101980001A496FF02203136049680068CA061849B3
:1019900006D0884224D1816811F0405F13D01FE047
:1019A0008842F8D0134A904203D1D1F80423D206DA
:1019B000F1D0114A904213D1D1F8041301F01F0164
:1019C0001029E8D30CE0816841F08041816007E094
:1019D000016C41F010010164416C41F0010141646E
:1019E000002018BD2800002040420F0000230140C5
:1019F0000020014000210140002201402DE9F84370
:101A000004464FF00009CDF8009063484FF416519A
:101A1000A56D0068B0FBF1F72E6894F85C10082003
:101A200000FA01F131420FD021680A6852070BD544
:101A30000A6822F004020A6094F85C108840A860EA
:101A4000606D40F00100606594F85C104FF0010893
:101A500008FA01F0304208D021684969090604D526
:101A6000A860606D40F00200606594F85C1004208E
:101A70008840304208D021680968890704D5A860E9
:101A8000606D40F00400606594F85C1010208840A0
:101A9000304218D021680968090714D5A860206869
:101AA0000168490304D50068000308D5A16C07E06C
:101AB0000168C90503D4016821F008010160216CA7
:101AC00009B12046884794F85C10202088403042B5
:101AD00031D021680968C9062DD5A86094F8350071
:101AE00005282068016806D0490347D5006800032F
:101AF0001DD4616C1CE021F0160101602068416971
:101B000021F080014161206C08B9A06C20B12068EF
:101B1000016821F00801016094F85C103F208840C2
:101B2000A86084F8358084F83490216D1FE0E16B63
:101B300009B120468847606D00282BD0606DC00732
:101B400014D0052084F835002068016821F00101D7
:101B500001600098401C0090B84203D820680068DB
:101B6000C007F6D184F8358084F83490E16C002900
:101B700010D001B02046BDE8F04308470168C90510
:101B8000D5D4016821F01001016084F8358084F813
:101B90003490CCE7BDE8F883280000202DE9F0411F
:101BA000044600F0B5F906465CB1022084F8350021
:101BB000002584F834502068016821F0010101609B
:101BC0000DE00120BDE8F08100F0A2F9801B05289E
:101BD00005D920206065032084F83500F2E72068ED
:101BE0000068C007F0D12268116820480140D4E99C
:101BF00001031843D4E90336334318436369184398
:101C0000A3691843E3691843236A18430843616AC8
:101C1000042903D1D4E90B13194308431060206849
:101C20004069666A20F0070130460E430127042808
:101C30000CD1A06A0643E06A40B12046FFF720F9C4
:101C400020B14020606584F83570BAE720684661AD
:101C50002046FFF701F994F85C203F219140816014
:101C6000656584F835700020ACE700003F8010F017
:101C70002DE9F0410446866D90F8340000250128D6
:101C80000DD0012084F8340094F835700020012F25
:101C900007D084F8340002252846BDE8F0810220F0
:101CA000FBE7022784F8357060652046FFF712F9DC
:101CB00094F85C103F208840B0602068016841F0D3
:101CC00016010160206C20B12068016841F0080114
:101CD00001602068016841F001010160DCE700005B
:101CE00070B5044600F014F90546601C02D00448A3
:101CF0000078044400F00CF9401BA042FAD370BDF8
:101D0000440000202DE9F84FDFF8BCA10022012596
:101D100003264FF00F090AF1040BAAF1040E00BFCD
:101D20000B6805FA02F42340A34270D10F7907F043
:101D30000307012F01D0022F16D187684FEA42080E
:101D400006FA08FC27EA0C07D1F80CC00CFA08FCCC
:101D50004CEA070CC0F808C04768A7430C79C4F3E5
:101D6000001494403C4344600C79E443A4070AD037
:101D7000C4684FEA420C06FA0CF7BC438F6807FAB6
:101D80000CF72743C7600C7904F00304022C12D12E
:101D9000D40800EB840CDCF820405707FF0E09FA4A
:101DA00007F824EA0804D1F8108008FA07F848EA8E
:101DB0000408CCF8208004684FEA420C06FA0CF7BD
:101DC000BC430F7907F0030707FA0CF727430760B6
:101DD0004C6814F4403F70D03C4C276847F480476F
:101DE0002760246822F0030704F480440094384CF0
:101DF00007EB040CDCF8084897074FEA177809FA54
:101E000008F7BC43334FB84202D1002724E054E026
:101E1000314FB84201D101271EE0304FB84201D105
:101E2000022719E02E4FB84201D1032714E02D4FAD
:101E3000B84201D104270FE02B4FB84201D105274A
:101E40000AE02A4FB84201D1062705E0284FB842E0
:101E500001D1072700E0082707FA08F72743CCF845
:101E60000878DAF800405746D1F804C09C435FEA8E
:101E7000CC2C00D51C433C60DBF800405F46D1F819
:101E800004C09C435FEA8C2C00D51C433C60DEF808
:101E900000407746D1F804C09C435FEA8C3C00D5F3
:101EA0001C433C60084F083F3C68D1F804C09C4389
:101EB0005FEACC3C00D51C433C60521C102AFFF466
:101EC0002FAFBDE8F88F0000083C014044380240C5
:101ED00000300140000002400004024000080240BF
:101EE000000C0240001002400014024000180240A2
:101EF000001C0240426921EA02030A4043EA02410F
:101F0000816170470AB1816170470904FBE70000F5
:101F100001488068704700004400002070B504004C
:101F200025D094F83D00002520B984F83C50204687
:101F300000F0E0FB242084F83D002068016821F0D7
:101F4000010101602068016841F4004101602068DE
:101F5000016821F40041016000F038FD4D4A6168DC
:101F6000914201D84C4900E04C49884201D20120FD
:101F700070BD4B492368B0FBF1F15E6826F03F0667
:101F80000E435E606368934206D94FF496735943DB
:101F90004FF47A73B1FBF3F12368491C1E6A26F0F3
:101FA0003F06314319626168914210D84900401ED2
:101FB000B0FBF1F2521CC2F30B02042A01D204203E
:101FC00022E0B0FBF1F0401CC0F30B001CE0A26863
:101FD000F2B301EBC10303EB0116431EB3FBF6F3AF
:101FE0005B1C43F480431B0549D092B301EBC10253
:101FF00002EB0111401EB0FBF1F0401CC0F30B00DE
:1020000040F4804040F400402168CA694CF6FF73F8
:102010009A431043C861D4E907100143206802685D
:1020200022F0C00211430160D4E90301014320689A
:10203000826848F2FF339A4311438160D4E9050175
:1020400008432168CA6822F0FF021043C86001E01B
:102050000EE016E02068016841F00101016025648E
:10206000202084F83D00256384F83E50002070BD98
:1020700001EB4106431EB3FBF6F35B1CB3E7012003
:10208000C2E701EB4101401EB0FBF1F0401CC0F380
:102090000B00B7E7A086010080841E0000093D0008
:1020A00040420F002DE9F84F1F4690468A460446ED
:1020B000DDF82890FFF72CFF054694F83D00202816
:1020C00071D11923012270492046009501F0F6FDD7
:1020D0000028F5D194F83C00012864D0012084F850
:1020E0003C0020680168C90703D1016841F0010183
:1020F00001602068016821F400610160222084F8F9
:102100003D00102084F83E0000262664C4F8248098
:102110006785608D20855D48E0622B464A465146C2
:10212000204601F009FC002876D1208D584F68B177
:10213000012814D002282068016816D041F480617B
:10214000016020684169806900908EE020684169E3
:1021500081690091016841F40071016085E02068A7
:10216000016821F480610160F0E721F48061016081
:102170002068016841F40061E2E7032846D801289D
:102180000AD0022810D04B4600223946204600953E
:1021900001F094FDC8BB25E02A464946204601F0DF
:1021A00033FE90BB54E06CE04B460022394620469B
:1021B000009501F083FD40BB2068016841F4007187
:1021C000016020680069616A0870606A401C606292
:1021D000218D491E2185618D491E6185216809690E
:1021E000017039E02068016821F480610160206895
:1021F0000069616A0870606A401C6062208D401E40
:102200002085608D401E6085CEE705E02A46494660
:10221000204601F0F9FD10B10120BDE8F88F2068DB
:102220000069616A0870606A401C6062208D401E0F
:1022300081B22185608D401E608520684269D2434D
:10224000520712D4032903D1016821F4806101608F
:1022500020680069616A0870606A401C6062208DB5
:10226000401E2085608D401E6085208D002884D111
:10227000202084F83D0084F83E6084F83C60002013
:10228000CBE70220C9E70000020010000000FFFFBA
:10229000040001002DE9F84F1F4690468A46044687
:1022A000DDF82890FFF734FE054694F83D0020281D
:1022B0007FD11923012240492046009501F0FEFC00
:1022C000002876D194F83C00012872D0012084F8CF
:1022D0003C0020680168C90703D1016841F0010191
:1022E00001602068016821F400610160212084F808
:1022F0003D00102084F83E0000262664C4F82480A7
:102300006785608D20852D48E0622B464A46514600
:10231000204601F087FB90B92068416980690090F0
:1023200036E02A464946204601F0A6FD50B1206C11
:10233000042804D12068016841F400710160012083
:10234000BDE8F88F606A216800780861606A401C07
:102350006062618D491E6185218D491E89B221858A
:1023600022685369DB435B070BD451B100781061DD
:10237000606A401C6062608D401E6085208D401E3A
:1023800020852A464946204601F06CFC0028CED123
:10239000208D0028C5D154F83D0B016841F400712F
:1023A0000160202004F81E09E67766770020C7E761
:1023B000FFE70220C4E70000020010000000FFFF5A
:1023C0002DE9FF4F83B09A46DDE911879346044615
:1023D000DDF84090FFF79CFD054694F83D0020286D
:1023E00070D11923012274492046009501F066FC42
:1023F0000028F5D194F83C00012863D0012084F82E
:102400003C0020680168C90703D1016841F001015F
:1024100001602068016821F400610160222084F8D5
:102420003D00402084F83E0000262664C4F8249035
:10243000A4F82A80608D20856048E062CDE90075AF
:1024400053465A462046049901F03AFB002879D1B8
:10245000208DD0B1012821D00228206824D04169E4
:1024600080690090208D032866D801282BD054491C
:1024700002283B464FF00002009557D08846204680
:1024800001F01CFC00285DD13AE0206841698169B7
:102490000091016841F4007101607DE020680168ED
:1024A00021F480610160F0E7016821F4806101603E
:1024B0002068016841F40061016020684169806919
:1024C000009069E075E02A463946204601F09CFC00
:1024D00088BB54E02068016841F400710160206805
:1024E0000069616A0870606A401C6062218D491E43
:1024F0002185618D491E618521680969017042E06D
:102500002068016821F48061016020680069616AC7
:102510000870606A401C6062208D401E2085608DBE
:10252000401E60853B46002241460095204601F052
:10253000C5FB00B9CEE705E02A463946204601F042
:1025400063FC18B1012007B0BDE8F08F2068006976
:10255000616A0870606A401C6062208D401E81B212
:102560002185608D401E608520684269D2435207F4
:1025700012D4032903D1016821F48061016020682D
:102580000069616A0870606A401C6062208D401EAC
:102590002085608D401E6085208D00287FF462AF0D
:1025A000202084F83D0084F83E6084F83C600020E0
:1025B000C9E70220C7E70000020010000000FFFF8B
:1025C000040001002DE9FF4F83B09A46DDE9119721
:1025D00093460446DDF84080FFF79AFC054694F8E0
:1025E0003D0020287FD11923012240492046009533
:1025F00001F064FB002876D194F83C00012872D0E9
:10260000012084F83C0020680168C90703D10168F3
:1026100041F0010101602068016821F4006101605E
:10262000212084F83D00402084F83E0000262664E6
:10263000C4F82480A4F82A90608D20852C48E0629C
:10264000CDE9007553465A462046049901F0B6FA82
:1026500070B930E02A463946204601F00DFC58B1E9
:10266000206C042804D12068016841F400710160E5
:10267000012007B0BDE8F08F606A2168007808612A
:10268000606A401C6062218D491E89B22185628D7D
:10269000521E628522685369DB435B070BD469B124
:1026A00000781061606A401C6062208D401E2085A9
:1026B000608D401E6085208D0028CBD12A4639468A
:1026C000204601F0CFFA0028CAD154F83D0B01682A
:1026D00041F400710160202004F81E09E677667756
:1026E0000020C6E7FFE70220C3E700000200100059
:1026F0000000FFFF10B586B0044614216846FDF7C0
:1027000048FE13492068884220D1124800210268FF
:1027100042F002020260006800F002000590C02052
:1027200000901220CDE901010320039004200490C1
:1027300069460948FFF7E6FA06481030016841F497
:1027400000110160006800F40010059006B010BD93
:1027500000540040303802400004024002488168C2
:102760000278114481607047440000200B4810B586
:10277000016841F400710160016841F48061016009
:10278000016841F480710160032000F073F80F20AC
:1027900000F006F800F024F8002010BD003C0240D4
:1027A00070B50D4D04464FF47A712878B1FBF0F006
:1027B0000A490968B1FBF0F000F03DFD48B9102C62
:1027C00007D200222146501E00F034F800206C6031
:1027D00070BD012070BD00004400002028000020D2
:1027E0000C4882B0016841F480410160006800F447
:1027F000804000900748001F016841F0805101604F
:102800000068002200F0805000900F21901E02B05E
:1028100000F010B844380240002809DB00F01F0225
:10282000012191404009800000F1E020C0F8001132
:1028300070470000F0B40E4B1B680C46C3F3022334
:10284000C3F10705042D00D90425191D072901D25C
:10285000002300E0DB1E012606FA05F1491E214097
:1028600099409E40761E16403143F0BC02F004BDF4
:102870000CED00E0064900F0070208684FF6FF0380
:10288000184040EA0220034A1043086070470000E5
:102890000CED00E00000FA052DE9F0470E460500BA
:1028A00065D0DFF81481D8F80000F7B200F0070017
:1028B000B04207D288F80070D8F8000000F0070096
:1028C000B04254D128683D4C810712D5400703D54A
:1028D000206840F4E05020602878000703D5206885
:1028E00040F4604020602068A96820F0F0000843B0
:1028F00020602878C0072DD0304968680839012841
:1029000012D0022813D0032811D0096889070029A2
:102910002DDA216821F0030101432160FFF7F8FA65
:10292000814641F2883A0EE009688903EFE70968B9
:102930008901ECE7FFF7ECFAA0EB0901514502D958
:102940000320BDE8F0872068696800F00C00B0EB58
:10295000810FEFD1D8F80010404601F00701B142D5
:1029600007D90770006800F00700B04201D00120CD
:10297000E7E72878400705D52068E96820F4E050AB
:10298000084320602878000706D52068296920F4CC
:10299000604040EAC100206000F038F82168084A31
:1029A000C1F30311515CC84006490860064800683D
:1029B000FFF7F6FE0020C4E7003C02400838024062
:1029C00004C80208280000204800002004480549E7
:1029D00000680968044AC1F38221515CC84070470D
:1029E000280000200838024014C80208044805499D
:1029F00000680968044AC1F34231515CC84070471D
:102A0000280000200838024014C80208154810B5F4
:102A1000006810F00C02144813D01449042A0FD097
:102A2000082A0ED10F4C241F2268236802F03F02AF
:102A30005B0207D52068C0F38810A0FB010106E007
:102A4000084610BD2168C1F38811A1FB00010023D5
:102A5000FDF716FC2168C1F30141491C4900B0FB98
:102A6000F1F010BD083802400024F40040787D01E8
:102A70002DE9F84F04006ED02078DFF84C93C007A2
:102A8000A9F104054AD009F104000168C1F38101EC
:102A9000012908D00068C0F3810002280AD1D9F8C2
:102AA0000000400206D52868800337D560680028FA
:102AB000E1D033E06068B0F5803F10D0B0F5A02FD2
:102AC000286810D020F480302860286820F4802006
:102AD00028606068A8B1FFF71BFA06460DE0286879
:102AE00040F48030F4E740F480202860F7E700BF2E
:102AF000FFF70EFA801B642873D828688003F7D587
:102B00000CE0FFF705FA064605E000BFFFF700FA04
:102B1000801B6428F0D828688003F7D42078DFF879
:102B2000AC8280074FF0000A3ED5A748001D01681F
:102B300011F00C0F08D00068C0F3810002280BD1FF
:102B4000D9F80000400207D42868800716D5E0684D
:102B5000012800D112E033E1E068B8B10120C8F8E3
:102B60000000FFF7D5F9064605E000BFFFF7D0F9F2
:102B7000801B0228C0D828688007F7D528682169FB
:102B800020F0F80040EAC10028600DE0C8F800A07D
:102B9000FFF7BEF9064604E0FFF7BAF9801B0228EA
:102BA0001FD828688007F7D42078000722D5864FE1
:102BB00087486169703771B101210160FFF7A8F999
:102BC000064604E0FFF7A4F9801B022809D83868FC
:102BD0008007F7D50EE0C0F800A0FFF799F9064688
:102BE00005E082E0FFF794F9801B02287DD8386861
:102BF0008007F7D42078400768D5DFF8CCB10027EC
:102C00000BF13C0BDBF80000C0000BD4DBF800102C
:102C100041F08051CBF80010DBF80000012700F0F4
:102C2000805000906B4E3068C00510D4306840F47E
:102C300080703060FFF76CF9009005E0FFF768F9ED
:102C40000099401A022850D83068C005F6D55E4E6B
:102C5000A0686C3601280FD00528306810D020F00D
:102C600001003060306820F004003060A068B8B126
:102C7000FFF74EF900900FE0306840F00100F4E7F4
:102C800040F004003060F7E7FFF742F90099411A7D
:102C900041F28830814266D830688007F4D50EE072
:102CA000FFF736F9009007E0FFF732F90099411A73
:102CB00041F28830814256D830688007F4D42FB171
:102CC000DBF8001021F08051CBF80010A069C8B3E8
:102CD0003D49091D0968C1F3810102294AD0022832
:102CE000504607D0C8F8600000E03CE0FFF710F95C
:102CF00004463BE04746C8F86000FFF709F906467E
:102D000005E000BFFFF704F9801B02282BD82868D4
:102D10008001F7D4D4E907010843A16A2E4A490883
:102D200002EB0141626A41EA8211084394F82C10D7
:102D300040EA0161C9F8001001203866FFF7E8F8A1
:102D4000044606E03EE000BFFFF7E2F8001B022861
:102D500009D828688001F7D534E000BFFFF7D8F81C
:102D6000001B022802D90320BDE8F88F28688001E3
:102D7000F4D427E00128F7D0D9F80000E26900F484
:102D8000800191421CD1226A00F03F01914217D18B
:102D900047F6C071626A0140B1EB821F10D1A26A8E
:102DA0004FF0FF3300F4403103EB5202B1EB024F1E
:102DB00006D194F82C1000F07060B0EB016F01D0D8
:102DC0000120D1E70020CFE704380240000047424D
:102DD000800E4742007000400000FFFF704770B552
:102DE000040009D0606A002540B125616561A562D3
:102DF00094F8510040B10CE0012070BD6068B0F55E
:102E0000827FF4D0E561F2E784F85050204600F06C
:102E100045F8022084F851002068016821F0400143
:102E20000160A088218900F4827001F40441084304
:102E3000A18901F400610843217C01F002010843EB
:102E4000217D01F001010843218B01F40071084349
:102E5000217F01F03801084394F8201001F080012F
:102E60000843218D01F40051084321680860A069DE
:102E7000042101EA104094F8241001F010010843E5
:102E8000216848602068C16921F40061C1616565FD
:102E9000012084F85100002070BD000070B586B09C
:102EA000054614216846FDF774FA214928688842CE
:102EB0003BD120480026016841F480510160006840
:102EC00000F4805005901B481438016841F001015E
:102ED00001600068694600F001000590E020009064
:102EE0000220CDE90106032003900520049012483A
:102EF000FEF708FF124C114820604FF0C060606080
:102F00004020C4E9020600012061400060618000A9
:102F1000C4E90606C000C4E908062046FEF73EFEE6
:102F200008B1FEF7C7F9AC64A56306B070BD000038
:102F30000030014044380240000002405864024022
:102F4000C00400202DE9FF4F81B01D469346044682
:102F50004FF001090E9EFEF7DBFF074694F8510083
:102F60006168012806D0B1F5827F3CD1A168C9BB58
:102F7000042838D10298002871D0BBF1000FFBD093
:102F8000002DF9D094F8500001282CD04FF0010A00
:102F900084F850A094F85100042802D0052084F849
:102FA00051004FF00008C4F85480C4F838B0E587E9
:102FB000A58702992163E586A586C4F84080C4F8F8
:102FC000448020680168490603D4016841F040014B
:102FD0000160E068B0F5006F606808D0F0B3012DC3
:102FE00049D081E0FFE7022005B0BDE8F08F08B1CD
:102FF000012D39D1206B21680088C860206B801CAE
:103000002063E08E401EE0862EE0206881688907FC
:103010000FD5E18E69B1B9F1010F0AD1216B098891
:10302000C160206B801C2063E08E401EE0864FF064
:10303000000920688168C9070CD0E18F51B1C068D0
:10304000A16B0880A06B801CA063E08F401EE0870E
:103050004FF00109FEF75CFFC01B01E00BE067E0E9
:10306000B04201D3701C50D1E08E0028CDD1E08F4A
:103070000028CAD13EE0206B216800780873206BDD
:10308000401C2063E08E401EE0862DE020688168B1
:1030900089070FD5E18E69B1B9F1010F0AD1216B12
:1030A00009780173206B401C2063E08E401EE0868F
:1030B0004FF0000920688168C9070CD0E18F51B139
:1030C000C068A16B0870A06B401CA063E08F401E1D
:1030D000E0874FF00109FEF71BFFC01BB04202D38F
:1030E000701C01D011E086B1E08E0028CED1E08FB7
:1030F0000028CBD13A463146204601F0AFFB50B113
:103100002020606584F8508012E084F851A084F893
:103110005080032068E7A06818B92068C1688068FB
:10312000009084F851A084F85080606D0028F1D0A0
:10313000012059E770B5044690F8510001281CD1D0
:10314000C9B1C2B194F85000012816D0012084F80A
:103150005000032084F85100002565652163A28694
:10316000E286A56365642564A587E587A068B0F558
:10317000004F04D00DE0012070BD022070BD20681A
:10318000016821F0400101602068016841F480413C
:103190000160A16C17480864A16C1748C863A16C52
:1031A0001648C864A06C0565E38E2268216B0C325A
:1031B000A06CFEF75DFD30B1606D40F01000606501
:1031C00084F85050D7E720680168490603D40168A5
:1031D00041F04001016084F850502068416841F09E
:1031E000200141602068416841F0020141600020F7
:1031F00070BD0000EF470008F9470008CD47000800
:1032000010B5094CA0420ED1012211020748FEF769
:1032100079FE0020E0602046FFF7E1FDBDE81040A8
:10322000034814F0AFB810BD680400200004024049
:10323000E82E0120704710B5401EB0F1807F01D309
:10324000012010BD4FF0E02460610F21601702F0F3
:1032500013F80020A06107202061002010BD10B5E8
:1032600090F83C20012A22D0012280F83C20CA6834
:103270008C6822F4407222434C6822F4806222431C
:103280000C6822F4006222430C6922F4805222432B
:103290004C6922F400522243C969002322F480427F
:1032A0000A4301684A6480F83C30002010BD0220C7
:1032B00010BD000070B590F83C20012A32D00124E6
:1032C00080F83C40022280F83D2003685A689D68DF
:1032D00022F070060A6832435A60134B02689A4221
:1032E00014D0B2F1804F11D0104B9A420ED0104B37
:1032F0009A420BD00F4B9A4208D00F4B9A4205D0FE
:103300000E4B9A4202D00E4B9A4204D1496825F0E6
:1033100080031943916080F83D40002180F83C1003
:10332000084670BD022070BD00000140000400404E
:1033300000080040000C0040000401400040014033
:103340000018004010B5040003D094F83D0010B1FF
:1033500007E0012010BD002084F83C00204600F06A
:103360001FF8022084F83D00211D206801F012FCA6
:10337000012084F8460084F83E0084F83F0084F879
:10338000400084F8410084F8420084F8430084F847
:10339000440084F8450084F83D00002010BD000082
:1033A00008B500680649884208D10648016841F01E
:1033B00001010160006800F00100009008BD0000FC
:1033C000000001404438024070B5044690F83C00CB
:1033D0000025012817D0012684F83C60022084F8DB
:1033E0003D002068826822F0770222F47F428260EA
:1033F0000868502838D00DDC20284FD005DC90B369
:10340000102811D14AE0022070BD302846D0402853
:103410000AD13BE060282FD070280DD0B0F5805F36
:1034200003D0B0F5005F12D0012584F83D60002084
:1034300084F83C00284670BDCB68D1E901212068A2
:1034400001F01DFC2068816841F0770109E0CB683C
:10345000D1E90121206801F012FC2068816841F463
:1034600080418160E1E719E0CA684968206801F09D
:10347000DBFC5021206806E0CA684968206801F03A
:10348000E4FC6021206801F004FCCEE7CA684968CA
:10349000206801F0C9FC40212068F4E72268014659
:1034A0001046F0E710B586B0044614216846FCF7D4
:1034B00070FF0E492068884216D10D48002102682D
:1034C00042F010020260006800F0100005904FF416
:1034D000007000900220CDE901010120CDE9031028
:1034E00069460448FEF70EFC06B010BD000001401E
:1034F000303802400010024070B5044690F83C009D
:1035000000260D4601280FD0012084F83C006AB146
:10351000042A1DD0082A2FD00C2A3FD001260020D3
:1035200084F83C00304670BD022070BD206801F078
:10353000B9FB2068816941F00801816120688169D7
:1035400021F004018161206881692A69114311E039
:10355000206801F0D7FB2068816941F40061816136
:103560002068816921F480618161206881692A690C
:1035700041EA02218161D2E7206801F0F9FB20686D
:10358000C16941F00801C1612068C16921F00401ED
:10359000C1612068C1692A69114311E0206801F006
:1035A0001BFC2068C16941F40061C1612068C169E8
:1035B00021F48061C1612068C1692A6941EA022160
:1035C000C161ACE710B5040003D094F83D0010B120
:1035D00007E0012010BD002084F83C00204600F0E8
:1035E0001EF8022084F83D00211D206801F0D2FA67
:1035F000012084F8460084F83E0084F83F0084F8F7
:10360000400084F8410084F8420084F8430084F8C4
:10361000440084F8450084F83D00002010BD704748
:1036200010B50446022249B104290ED0082913D04E
:1036300094F84100012816D0012010BD94F83E00F6
:103640000128F9D184F83E200FE094F83F000128CA
:10365000F2D184F83F2008E094F840000128EBD133
:1036600084F8402001E084F841200122206801F024
:10367000F9FA16492068164A884201D0904203D1CF
:10368000436C43F4004343642068884213D0B0F194
:10369000804F10D00F4988420DD00F4988420AD080
:1036A0000E49884207D0904205D00D49884202D089
:1036B0000C49884204D1816801F00701062903D032
:1036C000016841F001010160002010BD00000140CF
:1036D000000401400004004000080040000C0040CD
:1036E000004001400018004070B5040004D094F878
:1036F0004100002510B106E0012070BD84F8405063
:10370000204600F023F8242084F841002068C16896
:1037100021F40051C160204601F00CFC20680169D1
:1037200021F4904101612068416921F02A01416141
:103730002068C16841F40051C1606564202084F8AC
:10374000410084F842006563002070BD10B586B06A
:10375000044614216846FCF71CFE14492068884280
:1037600021D113480021026842F010020260006873
:1037700000F0100005900E481438026842F0010273
:103780000260006800F0010005904FF4C0600090F6
:103790000220CDE90101032003900720049069462F
:1037A0000448FEF7AFFA06B010BD0000001001405B
:1037B00044380240000002402DE9F84F044690F8DA
:1037C00042009A4616460D46202802D00220BDE847
:1037D000F88FB5B1AEB100206064222184F84210A8
:1037E0002063FEF795FBA6858146E685A0684FF429
:1037F00080582027404501D1206920B12E46002560
:1038000029E00120E3E7002625E04B4600222021A5
:103810002046CDF800A001F013FC18B184F84270E6
:103820000320D4E726B1A06840451AD038B108E09B
:1038300020684068C0F3080025F8020B08E0206902
:1038400078B12068406800F07F0000BF06F8010BE7
:10385000E08D401EE085E08D0028D6D184F84270CE
:10386000B5E720684068F1E72DE9F843044690F891
:103870004100984616460D46202802D00220BDE899
:10388000F88385B17EB100206064212084F8410076
:10389000FEF73EFBA6848146E684A0682027B0F5AB
:1038A000805F02D003E00120E9E7206910B12E46D5
:1038B00000250EE000260CE08021204601F0C0FB30
:1038C000A8B9C6B116F8010B21684860E08C401E0B
:1038D000E084E08C4B464FF00002CDF800800028D9
:1038E000EAD14FF04001204601F0AAFB40B184F834
:1038F00041700320C3E735F8020BC0F30800E3E78B
:1039000084F841700020BAE7FEE701684A69D243B3
:1039100052050FD46FF480624A61002140F8301FD5
:10392000202242738173026942F004020261017332
:1039300001207047002070472DE9F84F0446C06A07
:103940001E4693460D4621680A6842F480620A606A
:10395000082807D0012805D010F5803F02D0206B41
:10396000112804D12068016841F4807101604FF092
:1039700001195B46002249462046009600F09EF958
:103980004FF4007840B120680068C00501D5C4F844
:1039900040800320BDE8F88F2069DFF884A0B0F5EF
:1039A000804F0FD00620216800EAD51747F0F000BD
:1039B000086133465A460AF10601204600F0C6F96E
:1039C00058BB03E0E8B240F001001CE02168E8B217
:1039D000086133465A465146204600F0B7F9E0B92F
:1039E0002068416981690091016841F4807101603A
:1039F0005B46002249462046009600F05FF9002809
:103A0000C1D147F0F1002168086133465A4651465A
:103A1000204600F09BF90028BCD00120BAE7000046
:103A200002000100F8B50446C06A1E460D4617465E
:103A3000082807D0012805D010F5803F02D0206B60
:103A4000122804D12068016841F480710160134696
:103A500000224FF001112046009600F02FF940B1EE
:103A600020680068C00502D54FF400702064032070
:103A7000F8BD2069B0F5804F0ED00620216800EA1D
:103A8000D51040F0F000086133463A460B49204615
:103A900000F05CF978B902E005F0FE0000E0E8B261
:103AA00021680861054933463A46891F204600F0DF
:103AB0004DF90028DCD00120F8BD0000080001000D
:103AC0002DE9F84F0446006889460B9D0168984629
:103AD000174641F4806101602068016841F48071FB
:103AE000016000954FF0011B0022594620460A9BB9
:103AF00000F0E4F84FF4007A40B120680068C00597
:103B000001D5C4F840A00320BDE8F88F216809F072
:103B1000FE0008612B46284920460A9A00F016F953
:103B2000F0BB20684169806900902A4620460A99C6
:103B300000F0A2F940B1206C04283AD12068016855
:103B400041F40071016034E0FEB2B8F1010F09D018
:103B50002168380A08612A4620460A9900F08CF943
:103B60000028E8D1206806612A4620460A9900F01C
:103B700083F90028DFD12068016841F48071016079
:103B800000950022594620460A9B00F097F800282D
:103B9000B3D1216809F0FF0040F00100086100E0A6
:103BA00007E02B46044920460A9A00F0CFF8002887
:103BB000AAD00120A8E70000020001002DE9F84387
:103BC000044600680D46DDE90897016898461646E8
:103BD00041F4807101604B4600224FF001112046F4
:103BE000009700F06BF848B120680068C00502D566
:103BF0004FF4007020640320BDE8F883216805F0CD
:103C0000FE0008613B464A461549204600F09EF8F2
:103C100088B920684169806900903A464946204643
:103C200000F02AF948B1206C042804D1206801680A
:103C300041F4007101600120DEE7F5B2B8F1010F37
:103C400009D02168300A08613A464946204600F00A
:103C500013F90028E7D1206805610020CCE70000B7
:103C60000200010070B516460D4604461EE02046CF
:103C7000FFF74BFE08B1012070BD681C16D0FEF79F
:103C800047F9801BA84200D885B920684069C04325
:103C900040070BD5002044F8300F20216173A0733A
:103CA000216941F0200121612073E4E72068406927
:103CB000C0434007DBD4002070BD00002DE9F04771
:103CC000984617460D460446C1F30746DDF8209096
:103CD0002AE000BFB8F1FF3F26D0FEF719F9A0EBAC
:103CE0000901414502D8B8F1000F1DD12068012E0D
:103CF00016D0806925EA00000004000C12D00020D4
:103D0000B84211D1002044F8300F20216173A07314
:103D1000216941F02001216120730120BDE8F08775
:103D20004069E7E70120EBE72068012E0AD08069AF
:103D300025EA00000004000C06D00020B842C9D0DB
:103D40000020EBE74069F3E70120F7E72DE9F047B2
:103D5000984616460D4604464FF000094FF0200ADB
:103D6000C1F3074723E020684069C043400515D4EC
:103D70002068016841F40071016021686FF480607F
:103D80004861C4F8309084F83DA084F83E90216CDE
:103D900041F00401216484F83C9021E0701C06D0BD
:103DA000FEF7B6F8A0EB0800B04203D816B1012F19
:103DB0001FD021E02068012F15D0806925EA00007E
:103DC0000004000C18D000BF44F8309F84F80DA008
:103DD00084F80E90216941F02001216184F80C9053
:103DE0000120BDE8F087406925EA00000004000CCE
:103DF000EAD12068406901E02068806925EA000076
:103E00000004000CAFD1ECE72DE9F041002590460D
:103E10000E460446202728E04069C043C0060CD463
:103E200054F8301B6FF01000486144F81059677760
:103E3000A577206A2062257714E0FEF769F8A0EBE9
:103E40000800B04200D886B920684069C0434006E7
:103E50000BD544F8305F6773A573206940F02000EC
:103E6000206125730120BDE8F08120684169C943C4
:103E70004906D1D40020F6E770B516460D46044633
:103E80001EE02046FFF741FD08B1012070BD681C0F
:103E900016D0FEF73DF8801BA84200D885B92068EF
:103EA0004069C04300060BD5002044F8300F2021A4
:103EB0006173A073216941F0200121612073E4E75F
:103EC00020684069C0430006DBD4002070BD0000BC
:103ED00070B514462DED028BB0EE418AF0EE608A8B
:103EE0000D4600F03BF80B4880ED000AB0EE680A82
:103EF000284600F033F8084880ED000AB0EE480A82
:103F0000204600F02BF8054880ED000ABDEC028B3E
:103F100070BD0000000000200400002000C001204F
:103F200010B504462DED048BB0EE419AB0EE608AD8
:103F3000F0EE408A1C21FCF72CFA84ED009AB7EED3
:103F4000001A84ED011A84ED021A84ED031AC4EDFF
:103F5000048A84ED058ABDEC048B10BDD0ED020A05
:103F600090ED011A90ED052A60EE811A90ED041A89
:103F700001EEA01AD0ED030A60EE811A61EE202A4C
:103F800001EEA02AC2EE821AF0EE402AC0ED061A17
:103F900090ED002A40EEC22AB0EE420AB7EE002AA7
:103FA00001EEE02A01EEA20A62EE010A80EC020AAA
:103FB000704700002DE9F05F1C4C07460021608827
:103FC000401E83B22088401E82B2084600F044F9A9
:103FD000DFF85C904FF4807B002259464D464846FE
:103FE000FDF790FF012210212846FDF78BFF0026E8
:103FF000DFF840804FEA172A0EE0002508E051461E
:10400000404600F0BFFCF9B2404600F0BBFC6D1C1E
:104010002088A842F3D8761C6088B042EDD8594673
:104020004846BDE8F05F0122FDF76CBFB0050020F7
:10403000000402400030014010B5012220217A48DE
:10404000FDF760FF00F0F2F8F02000F051F9C32016
:1040500000F030F9F02000F04BF9962000F02AF93A
:10406000362000F045F9482000F024F93A2000F00D
:104070003FF9052000F01EF9B02000F039F980204A
:1040800000F018F9B62000F033F9002000F012F922
:10409000022000F00FF9B52000F02AF9022000F00C
:1040A00009F9032000F006F9002000F003F90420CC
:1040B00000F000F9B12000F01BF9802000F0FAF8C0
:1040C000102000F0F7F8B42000F012F9002000F002
:1040D000F1F8B72000F00CF9C62000F0EBF8C5208D
:1040E00000F006F91C2000F0E5F8E42000F000F9EB
:1040F000312000F0DFF8E82000F0FAF8402000F06E
:10410000D9F88A2000F0D6F8002000F0D3F800207B
:1041100000F0D0F8292000F0CDF8192000F0CAF8FE
:10412000A52000F0C7F8332000F0C4F8C22000F04A
:10413000DFF8A72000F0DCF8E02000F0D9F8F0204C
:1041400000F0B8F8092000F0B5F8132000F0B2F83C
:10415000122000F0AFF8122000F0ACF82B2000F095
:10416000A9F83C2000F0A6F8442000F0A3F84B206A
:1041700000F0A0F81B2000F09DF8182000F09AF83D
:10418000172000F097F81D2000F094F8212000F08F
:1041900091F8E12000F0ACF8F02000F08BF8092055
:1041A00000F088F8132000F085F80C2000F082F869
:1041B0000D2000F07FF8272000F07CF83B2000F075
:1041C00079F8442000F076F84D2000F073F80B20C9
:1041D00000F070F8172000F06DF8172000F06AF872
:1041E0001D2000F067F8212000F064F8F02000F0B6
:1041F0007FF83C2000F05EF8F02000F079F86920AC
:1042000000F058F8132000F073F8112000F070F857
:10421000292000F06DF8002000F098F8BDE810406B
:104220004FF6FF70FFF7C6BE0004024010B5094C00
:10423000002208212046FDF765FE6420FDF750FDB1
:10424000012208212046FDF75DFEBDE81040322026
:10425000FDF746BD000402402DE9F041DFF8508033
:1042600007461C4615460E4698F80C0000F040F82C
:10427000380A00F01FF8F8B200F01CF8280A00F025
:1042800019F8E8B200F016F898F80E0000F030F8CF
:10429000300A00F00FF8F0B200F00CF8200A00F03D
:1042A00009F8E0B200F006F8BDE8F04100F03EB8D1
:1042B000B005002070B50C4E04464FF48075002206
:1042C00029463046FDF71EFE012210213046FDF73B
:1042D00019FEE1B2054800F055FB29463046BDE81D
:1042E00070400122FDF70EBE000402400030014084
:1042F00070B50C4E04464FF48075002229463046B6
:10430000FDF700FE002210213046FDF7FBFD21469F
:10431000054800F037FB29463046BDE870400122D1
:10432000FDF7F0BD00040240003001400148007A72
:10433000FFF7DEBFB005002010B50C46FFF7D8FF31
:104340002046BDE81040FFF7B5BF000014492A22FF
:104350008A812B22CA812C220A812E224A8110F0C6
:1043600003038B714FF4A0724FF4F0700BD0012B4C
:104370000DD0022B0FD0032B11D108804A80E821E9
:104380003620FFF7D9BF0A8048804821F8E7088027
:104390004A802821F4E70A8048808821F0E77047A6
:1043A000B00500207FB500241548009401940294C4
:1043B0001249039401604FF48031C0E90114046193
:1043C000047680F820400F49C0E90A140125C56130
:1043D000C46080F830404561FDF7C9F908B1FCF7C9
:1043E00069FF0095CDE9015469460548FDF716F9C6
:1043F000002801D0FCF75EFF7FBD000000200140D7
:10440000840300200100000F7FB5002415480094AC
:10441000019402941249039401604FF48031C0E981
:1044200001140461047680F820400F49C0E90A14A1
:104430000125C561C46080F830404561FDF797F9FA
:1044400008B1FCF737FF0220CDE900056946029468
:104450000448FDF7E3F8002801D0FCF72BFF7FBDEF
:1044600000210140CC0300200100000F094808B5DD
:10447000016841F4800101600068002200F48000BE
:10448000009005213B20FEF7D5F9BDE808403B2010
:10449000FEF7C2B93038024010B50E4A00210E486E
:1044A00021F076FD0D4C0B4A0021A06024320C480F
:1044B00021F06EFD074AE06048320021094821F0F2
:1044C00067FD044A20616C320021074821F060FD3D
:1044D000606110BD74C70208A94A000810000020DE
:1044E000A5490008B55000086D0B00082DE9F047FC
:1044F00086B014216846FBF74CFF38480024016859
:1045000041F004010160016801F0040105910168B6
:1045100041F080010160016801F0800105910168AE
:1045200041F001010160016801F00101059101689C
:1045300041F010010160016801F01001059101686E
:1045400041F002010160016801F00201059101687A
:1045500041F008010160016801F00801059101685E
:1045600041F0400101600068DFF8748000F0400015
:1045700040F638550590002229464046FDF7C2FC1A
:10458000DFF8609040F6FF76002231464846FDF79E
:10459000B9FCDFF854A04FF4C0470022394650461A
:1045A000FDF7B0FC00950125CDE901546946404670
:1045B0000394FDF7A7FB0096CDE9015469464846F0
:1045C0000394FDF79FFB0097CDE9015469465046DF
:1045D0000394FDF797FB06B0BDE8F0873038024042
:1045E00000040240000C0240001802400D4810B5C3
:1045F0000B4901600C49416000214FF48042816009
:10460000C0E9031241618161C1610162FDF786FC6D
:10461000002803D0BDE81040FCF74CBE10BD0000E0
:104620000054004014040020A08601000F4810B57B
:104630000D4901604FF48271416000218160C160C9
:104640004FF400720161C0E90512C161016241626B
:1046500081620A21C162FEF7C2FB002803D0BDE8D7
:104660001040FCF727BE10BD003001406804002058
:1046700010B596B000240F941094119412941394D2
:104680001C2108A81494FBF784FE20216846FBF740
:1046900080FE27482549C0E900149621C0E902415F
:1046A000046144618461FEF74DFE08B1FCF702FE2F
:1046B0004FF480500F900FA91D48FEF785FE08B1FA
:1046C000FCF7F8FD1A48FEF77DFF08B1FCF7F2FD94
:1046D000139413A916481494FEF7ECFD08B1FCF7E7
:1046E000E9FD6020CDE908040A940B940C940D9424
:1046F000002208A90E480E94FEF7FEFE08B1FCF752
:10470000D9FD00944FF40050CDE904400294019487
:104710000394694606480794FEF7A1FD08B1FCF72B
:10472000C9FD0348FEF7BEFE16B010BD00000140F3
:10473000200500200C4810B50A4901604FF4E13112
:104740004160002181600C22C160C0E904128161D6
:10475000C161FEF7C9FF002803D0BDE81040FCF797
:10476000A9BD10BD0010014068050020FEE7FEE76E
:1047700070B5F1EE040A2DED028B80EE208A012443
:10478000BCEEC80A10EE100AC5B2002120460FF098
:10479000C3FB641CE4B20A2CF7D9012405E0012113
:1047A00020460FF0B9FB641CE4B2AC42F7D90648CE
:1047B0009FED040A28EE000A80ED000ABDEC028B92
:1047C00070BD00000000C8420800002010B5806BDA
:1047D00001684A6822F003024A60416D41F010010D
:1047E0004165012180F85110FEF7F8FA10BD10B5AF
:1047F000806BFEF71FFD10BD38B50546846BFDF7D5
:1048000087FB024628680068C00523D420684168F9
:1048100021F0200141602068416821F002014160DF
:104820006421204600F01AF818B1606D40F02000B5
:104830006065A068002118B92068C268806800908F
:10484000E186012084F85100606D18B12046FEF722
:10485000C5FA38BD2046FEF7D3FC38BDF8B515467D
:104860000E460B46009204460122022100F02CF86D
:10487000A0B9134813490068B0FBF1F04FF47A7106
:10488000484300906068B0F5827F0DD13346002226
:1048900080212046009500F017F870B1606D40F05F
:1048A000200060650320F8BD009830B1401E0090E4
:1048B00020688068C0430006F6D50020F8BD0000DF
:1048C0002800002000366E012DE9F8431E4691466F
:1048D00088460446089DFDF71BFB401B351AFDF773
:1048E00017FB074626480068C0F3CB3068430AE050
:1048F000701C09D0FDF70CFBC01BA8420FD275B18C
:104900000098B8B3401E00902068816838EA010022
:1049100033D000214945EBD10020BDE8F883206861
:10492000416821F0E00141606068B0F5827F0BD101
:10493000A068B0F5004F02D0B0F5806F04D12068B8
:10494000016821F040010160A06AB0F5005F09D163
:104950002068016821F4005101602068016841F479
:1049600000510160012084F85100002084F85000BB
:104970000320D2E7FFE70025C6E70121CAE70000D0
:104980002800002003B583B00A200090012301AA6B
:1049900004A90348FEF7D6FA9DF8040005B000BD4F
:1049A000680400201FB5314DDFF8C480314F324E0E
:1049B000DFF8C8A0DFF8C890DFF8C8B0FCF7FEFD4C
:1049C00085ED000AFCF7A2FD444688ED000AFCF7DD
:1049D000D9FD87ED000AB0EE401AD4ED000A95ED3E
:1049E000000A294A29492A48FFF772FA96ED000A77
:1049F000FFF7BEFEDAF80000FBF705FE41EC100BF6
:104A000024A0009053EC102B23A101A800F020FC5F
:104A10004C4601A9D9F8180018F0E8FA3068FBF7FD
:104A2000F2FD41EC100B1EA0009053EC102B1AA1CC
:104A300001A800F00DFC01A9606A18F0D7FADBF8B4
:104A40000000FBF7E0FD41EC100B16A0009053ECCA
:104A5000102B11A101A800F0FBFB01A9206B18F09D
:104A6000C5FA012021F059FAA8E7000004C001208E
:104A70000C00002008C001200000002004000020DD
:104A80004003002000C00120240300200803002070
:104A9000EC02002041000000252E32662573000044
:104AA00076000000C2B0430017F048FA1DF0F8FB92
:104AB0001DF01CFC074823F0BDFF06480BF045FE27
:104AC000044804F09FFE00BF20F07AF8012021F096
:104AD00024FAF9E74003002010B5FDF73FFE27F068
:104AE00077FC012803D0BDE8104027F0A5B910BD20
:104AF00030B593B030216846FBF74BFC14210CA86D
:104B0000FBF747FC1D480025016841F0805101601A
:104B1000006800F0805011901948016841F480410C
:104B200001600068022400F480401190012003908D
:104B300010200490009406940820CDE90750A82086
:104B4000CDE9090404200B906846FDF791FF08B1F8
:104B500072B6FEE70CA90F2081E831004FF4A05097
:104B60000F904FF48050109005210CA8FDF794FE93
:104B7000002801D072B6FEE713B030BD40380240C5
:104B8000007000400248016841F470010160704704
:104B900088ED00E0F0B50268274B284D284E294FDC
:104BA000294C4FF0804C984209D0604507D0A8426C
:104BB00005D0B04203D0B84201D0A04204D122F0C7
:104BC000700E4A6842EA0E0298421BD0604519D026
:104BD000A84217D0B04215D0B84213D0A04211D08D
:104BE0001A4DA8420ED01A4DA8420BD0194DA8421A
:104BF00008D0194DA84205D0184DA84202D0184D32
:104C0000A84203D122F44075CA682A434D6922F0B4
:104C100080022A438D68C5620D688562984201D082
:104C2000A04201D109690163016841F004010160FA
:104C3000012141610260F0BD00000140000400401C
:104C400000080040000C004000040140004001400A
:104C5000004401400048014000180040001C004092
:104C60000020004010B501F01F030121046A9940A3
:104C70008C430462016A9A401143016210BD10B571
:104C8000846842EA032224F47F440A432243826078
:104C900010BD826822F070020A4342F00701816071
:104CA00070470000F0B5036A026A22F00102026256
:104CB00042688469124E24F073050C682C4323F07B
:104CC00002058B682B430D4DA84201D0B04205D19F
:104CD00023F00807CB683B4323F00403A84201D02C
:104CE000B04205D14D6922F4407215438A692A43C6
:104CF00042608461496841630362F0BD0000014085
:104D000000040140F0B5026A036A23F01003036255
:104D1000436884690D6824F4E64444EA05248D68F8
:104D200022F0200242EA05120F4D104EA84201D097
:104D3000B04206D1CF6822F0800242EA071222F088
:104D40004002A84201D0B04207D14D6923F440632C
:104D500043EA85038D6943EA8503436084614968BA
:104D600081630262F0BD00000000014000040140C8
:104D7000F0B5026A036A23F4807303624368C4696E
:104D800022F4007224F073050C68124E2C438D68D7
:104D900042EA05220E4DA84201D0B04206D1CF68AA
:104DA00022F4006242EA072222F48062A84201D083
:104DB000B04207D14D6923F4405343EA05138D698E
:104DC00043EA05134360C4614968C1630262F0BDF0
:104DD000000001400004014030B5046A026A22F478
:104DE000805202624268C3690D6823F4E64343EAD5
:104DF00005238D6824F4005444EA0534084DA84284
:104E000002D0084DA84204D14D6922F4804242EA02
:104E100085124260C36149680164046230BD0000CC
:104E2000000001400004014010B5036A046A24F048
:104E300001040462846924F0F00444EA021423F0BB
:104E40000A020A438461026210BD10B5036A046A53
:104E500024F010040462846923F0A00324F4704455
:104E600044EA023243EA01118261016210BD00008E
:104E700010B5FCF721FA08B1012010BD0349024822
:104E80004860002010BD00007113000830000020B1
:104E900070B5124D04460122D1022846FDF732F8C2
:104EA0002915012C0BD0022C0FD0032C12D000227C
:104EB0002846FDF727F80A490020486370BD2846B8
:104EC000BDE870400122FDF71DB82846BDE87040DE
:104ED000FDF710B8BDE87040FBF760BF000C024062
:104EE0000000014001680C3151E8002F22F490725B
:104EF00041E80023002BF5D10168143151E8002F5F
:104F000022F0010241E80023002BF5D1016B0129B9
:104F100009D101680C3151E8002F22F0100241E85C
:104F20000023002BF5D1202180F8421000210163DD
:104F30007047000070B5044600680169E26821F41A
:104F40004051114301612169A068E2690843616928
:104F5000114308432168CA6849F20C639A4302432B
:104F6000CA6020684169A26921F44071114341611E
:104F700031492068884202D03049884202D1FDF789
:104F800035FD01E0FDF722FDE269002319216425CA
:104F90003226B2F5004F626828D0A0FB0101930FC2
:104FA0009200FBF76DF90146B0FBF5F06FF01802C7
:104FB000504301EB800006EB0010B0FBF5F000F071
:104FC000F002B1FBF5F002EB0012B1FBF5F06FF06F
:104FD0001803584301EB800006EB0010B0FBF5F01E
:104FE00000F00F0021681044886070BDA0FB010133
:104FF00092185B41FBF744F90146B0FBF5F0020162
:10500000B1FBF5F06FF01803584301EB800006EB9D
:10501000C000B0FBF5F000F0F80002EB4002B1FB7D
:10502000F5F0584301EB800006EBC000B0FBF5F053
:1050300000F00700D6E70000001001400014014016
:105040002DE9F843984617460D460446089E24E08D
:10505000701C22D0FCF75CFFA0EB0800B0421AD80D
:10506000CEB12068C168490717D5802D15D0402DD5
:1050700013D00168C94309070FD4016800254068AF
:1050800000902046FFF72EFF0820606484F840500F
:105090000120BDE8F8830320FBE72068006835EABB
:1050A000000004D00020B842D2D00020F1E7012057
:1050B000F9E70000ADF5087DFBF7BEFF264D27A1FF
:1050C000686B17F093FF2CA12EA0FBF77FFF04461F
:1050D0002EA33A4A3A493BA0FBF712FF04403EA0F8
:1050E000FCF7C2F804EA000B2FE01B4843A1406B19
:1050F00017F07CFF47480068FBF785FA8146464871
:105100000F460068FBF77FFA064644488846006869
:10511000FBF779FA044642480D460068FBF773FA3C
:1051200041EC100BDFF8FCA053EC102B3E499AF831
:105130000000CDE905708DE8700307A800F088F83D
:1051400007A9DAF80400FBF7E5FF012020F0E5FEEF
:10515000BBF1000FB2D0C8E7400300206E65747742
:105160006F726B20646973636F6E6E6563746564E0
:10517000EF87AB2000000000333430373437303055
:105180000000000069514F4F31320000696F742DEB
:1051900030367A3030616779623661346237312E69
:1051A0006D7174742E696F746875622E616C6979A3
:1051B000756E63732E636F6D000000006C2C050824
:1051C000C42B05084553503332266B31717133308F
:1051D0006A703437500000002F6B31717133306AC0
:1051E000703437502F45535033322F757365722FFB
:1051F0007375627363726962650000006E6574772F
:105200006F726B20636F6E6E6563746564EF87AB5E
:10521000200000000800002000C001200400002041
:105220000000002010000020BC2C0508FEE7000054
:105230000FB4054B10B503A9044A029801F0F2FD22
:1052400010BC5DF814FB00007717010820C0012096
:105250000FB4084B10B504A902AA039801F0E2FDAF
:10526000044602A9002002F074F9204610BC5DF843
:1052700014FB0000537500080907090E002804DB21
:1052800000F1E02080F80014704700F00F0000F1FA
:10529000E02080F8141D704702E008C8121F08C102
:1052A000002AFAD170477047002001E001C1121FA7
:1052B000002AFBD1704770B5044600256FF02F0619
:1052C00008E02068411C2160007805EB850106EBB1
:1052D000410145182068007800F0C6F80028F0D198
:1052E000284670BD2DE9FF5F82B00021DDE9043062
:1052F000020DDDF840B0034318D044F61050A2F27E
:10530000FF3242431514119801281FD0A5EB0B0062
:10531000401C5FEA000A4FF000064E4FDFF838915C
:10532000B046504615D5CAF1000413E01198012487
:105330004AA3012801D16FEA0B010298119AC0E932
:105340000031C0E9024206B0BDE8F09FCBF1000099
:10535000DFE704460021404A491842EB0450CDE9FA
:10536000001012E0E00707D032463B46404649466F
:10537000FBF74AF88046894632463B4610461946B6
:10538000FBF742F806460F466410002CEAD1DDE92F
:105390000401DDE90023BAF1000F06DAFBF734F867
:1053A00042464B46FBF730F805E0FBF79FF84246D4
:1053B0004B46FBF79BF804460E460022284BFBF7B2
:1053C000D9FA03D84FF0FF30014607E00022254B01
:1053D00020463146FBF70FFAFBF7B4FA102409E038
:1053E000002C0ADB0A220023FAF74AFF039B303223
:1053F0001A55641E50EA0102F2D1641C039AC4F1EA
:1054000011031444119A012A03D0012208430DD13B
:105410000AE0084304D000204FF0110B119072E70E
:10542000A3EB0B056D1E0DE05B4504DD4FF00002A4
:1054300005F1010504E003DA4FF00002A5F10105D2
:10544000002AECD002981199C0E90231C0E9004568
:1054500079E70000000014400000F03F3000000039
:105460000000F0430000E03F3038092801D8012057
:10547000704700207047000010B54421074800F035
:1054800085FF0022052106481FF062FB054CA06045
:1054900002F0F6FB0020207010BD00008007002005
:1054A000357D0008B80100202DE9F0470E46814601
:1054B00017461146304600F01CF94FF0FF3A00281D
:1054C0007DD000223946304600F0BFF800284FF06A
:1054D000000075D1B6F90480B6F900305246A8EB49
:1054E0000301491C0AFA81F10FFA81FAB6F906C0E4
:1054F000B6F90210ACEB010C0CF1010C02FA8CF2C3
:10550000B7F802C012B2ACEB010C0FFA8CFCBCF184
:10551000000F0EDD63F30F0468F30F0501EB0C00C1
:1055200061F31F4460F31F45C9F800400120C9F82A
:105530000450B7F906107388CB1AD21A12B2002A97
:1055400013DDB6F9063099420FDA338863F30F049E
:10555000B38861F31F4463F30F05114461F31F45E2
:1055600009EBC001401C0C604D60B7F90220B6F990
:1055700002108A4200DD1146B7F90630B6F906205E
:10558000934200DA1A463B88B6F900C0521AA3EBE0
:105590000C031BB212B2002B10DD002A0EDD634497
:1055A00063F30F058B1863F31F456CF30F0409EBCE
:1055B000C00361F31F441C605D60401C01E01AE001
:1055C00017E0B7F9043036889F1BAAEB070636B2FE
:1055D000002E0EDD63F30F0461F31F44334463F3C5
:1055E0000F05114461F31F4509EBC001401C0C601D
:1055F0004D60BDE8F0875046FBE770B5B1F900306B
:10560000B2F90040A34200DC23460380B1F9025006
:10561000B2F90240A54200DD2C464480B1F9046095
:10562000B2F90450AE4200DA35468580B1F9061071
:10563000B2F90620914200DB1146C1800120AB4245
:1056400001DC8C4200DD002070BDF8B50D4604463B
:10565000B0F90000B1F900101646884247DBB4F9F2
:105660000210B5F90220914241DBB4F90410B5F9FA
:10567000042091423BDCB4F90610B5F906209142B2
:1056800035DC96B3ADF800006088ADF80200324614
:105690006946284600F099F8002827D0A088ADF880
:1056A00000006088ADF8020032466946284600F0E6
:1056B0008CF800281AD02088ADF80000E088ADF8FA
:1056C000020032466946284600F07FF800280DD0D7
:1056D000A088ADF80000E088ADF8020032466946C7
:1056E000284600F072F8002800D00120F8BD002004
:1056F000F8BDB0F90020B1F904309A4213DCB0F9DA
:105700000420B1F900309A420DDBB0F90220B1F962
:1057100006309A4207DCB0F90600B1F9021088425F
:1057200001DB0120704700207047F8B50D460446A4
:10573000B0F90400B1F900101646884243DBB4F911
:105740000600B5F9021088423DDBB4F90000B5F956
:105750000410884237DCB4F90210B5F906209142F2
:1057600031DC76B3ADF800006088ADF80200324657
:105770006946284600F029F818BBA088ADF800005B
:105780006088ADF8020032466946284600F01DF8F0
:10579000B8B92088ADF80000E088ADF802003246C4
:1057A0006946284600F011F858B9A088ADF8000005
:1057B000E088ADF8020032466946284600F005F858
:1057C00008B10020F8BD0120F8BD2DE9FC411446C8
:1057D0000E46B1F90020B0F9001005468A423ADBC6
:1057E000B5F90400824236DCB6F90270B5F9022040
:1057F000974230DBB5F906309F422CDC002C75DD7A
:10580000401A9A1A401C521C00B212B200EBD0701F
:1058100002EBD27240105210904200DB10468442DC
:1058200000DD0446ADF80010288800222044ADF8C1
:1058300004006888ADF80200688831462044ADF85D
:1058400006006846FFF7C1FF40B1BDF804002044E0
:10585000ADF804003FE00020BDE8FC81E8880022AC
:10586000001BADF80200E888ADF806003146684636
:10587000FFF7ABFF28B1BDF804002044ADF80400E9
:1058800011E0A8880022001BADF80000A888ADF840
:10589000040031466846FFF798FF50B1BDF800009C
:1058A000001BADF80000BDF80200001BADF80200BF
:1058B00016E06888ADF80200688800222044ADF840
:1058C000060031466846FFF780FF70B1BDF8000062
:1058D000001BADF80000BDF806002044ADF806003E
:1058E000314668461CF0C0FCB6E7FFE70120B3E78D
:1058F00010B5B1F90040B2F900309C4200DA2346FD
:105900000380B1F90240B2F902309C4200DA23462A
:105910004380B1F90440B2F904309C4200DD2346D3
:105920008380B1F90610B2F90620914200DC1146DD
:10593000C18010BD2DE9F0418AB007461FF0B6F8CE
:105940000026A34C054600960FB1F86801E011F05F
:105950001FFD606000691CF083FB6068406908B14E
:105960001CF07EFB6068C0691CF07AFB6068006A0E
:105970001CF076FB6068016991B11CF03DFD21F0DF
:10598000D5FD21F0FBFA6068B0F85011E9B300686A
:10599000017CC9071FD0C0684068E0B1002715E04E
:1059A000A0F850610AB0BDE8F081C11991F830113A
:1059B00051B900F5AC7000F040FD616801EBC70122
:1059C0000A6B0260496B41607F1CBFB26068B0F82F
:1059D0005011B942E9D860684FF48071303017F047
:1059E0008FFF6068202100F5987017F089FF6068CC
:1059F000A0F8506128461FF053F8009060680068D6
:105A0000436A13B122680099984717F0BDFD00F072
:105A10002BF900F0FDF86F4D6F69D7BB17F065FBF0
:105A200016F05EFC074600227F211CF0F5F910F00D
:105A3000A1FE0146002238461CF0D8F911F00FF9FA
:105A40000146002238461CF066FA0022032138463F
:105A50001CF04DFA0022032138461CF039FA0022CE
:105A6000032138461CF039FA0022032138461CF085
:105A700039FA0022032138461CF048FA56A138466C
:105A800017F0B4FA00231A460621384618F024FB12
:105A90006F6128681FF004F84FF4967840450CD2E7
:105AA000206841F28831884234D9696800980844F6
:105AB0006860A868401CA8602CE01EF0F7FF286012
:105AC0006068406828B100684FF47A71B1FBF0F06B
:105AD00000E0C820696809B901216960A968F1B1CD
